:10000000180A0020211A0000751A0000B11800001B
:10001000B1180000B1180000B1180000B1180000BC
:10002000B1180000B1180000B11800002915000037
:10003000B1180000B1180000E5140000B11800006C
:10004000E5190000E5190000E5190000E5190000B8
:10005000E5190000E5190000E5190000E5190000A8
:10006000E5190000E5190000E5190000E519000098
:10007000E5190000E5190000E5190000E519000088
:10008000E5190000E5190000E5190000E519000078
:10009000E5190000E5190000E5190000E519000068
:1000A000E5190000E5190000E5190000E519000058
:1000B000E5190000E5190000E5190000E519000048
:1000C000E5190000E5190000E5190000E519000038
:1000D000E5190000E5190000E51900000000000026
:1000E0006112000000000000451800000000000040
:1000F0004518000000000000451800000000000046
:100100004518000000000000451800000000000035
:10011000C91C00000000000045180000000000009D
:100120004518000000000000451800000000000015
:100130004518000000000000451800000000000005
:1001400045180000000000004518000000000000F5
:1001500045180000000000004518000000000000E5
:1001600045180000000000009D1300000000000082
:1001700045180000000000004518000000000000C5
:1001800045180000000000004518000000000000B5
:1001900045180000000000004518000000000000A5
:1001A0004518000000000000451800000000000095
:1001B0004518000000000000451800000000000085
:1001C0004518000000000000451800000000000075
:1001D0004518000000000000451800000000000065
:1001E0004518000000000000451800000000000055
:1001F0004518000000000000451800000000000045
:100200004518000000000000451800000000000034
:10021000451800007BB972B90029BEBF00204FF01D
:10022000004106E008BF00281CBF6FF000414FF0FE
:10023000FF3000F0BFB9ADF1080C6DE904CE002924
:1002400009DB002B1ADB00F04DF8DDF804E0DDE9F6
:10025000022304B07047404261EB4101002B1BDBDD
:1002600000F040F8DDF804E0DDE9022304B040428C
:1002700061EB4101524263EB43037047524263EB2F
:10028000430300F02FF8DDF804E0DDE9022304B0B9
:10029000404261EB41017047524263EB430300F07F
:1002A00021F8DDF804E0DDE9022304B0524263EBFB
:1002B0004303704753B94AB9002908BF00281CBF3F
:1002C0004FF0FF314FF0FF3000F074B9ADF1080C82
:1002D0006DE904CE00F006F8DDF804E0DDE9022364
:1002E00004B070472DE9F047089E04468846002B6D
:1002F00040F085808A42154648D9B2FA82F24AB166
:10030000C2F1200701FA02F320FA07F7954047EA05
:10031000030894404FEA154E230CB8FBFEF71FFA72
:1003200085FC0EFB178843EA084307FB0CF1994252
:1003300009D9EB1807F1FF3080F0E380994240F2D1
:10034000E080023F2B445B1AA4B2B3FBFEF00EFB2D
:10035000103344EA034400FB0CFCA44509D92C19D2
:1003600000F1FF3380F0CB80A44540F2C880023812
:100370002C4440EA0740A4EB0C0400271EB1D440F3
:100380000023C6E900433946BDE8F087002A53D070
:10039000B2FA82F2002A40F0B680491B4FEA154EAD
:1003A0001FFA85F80127B1FBFEFC230C0EFB1C1184
:1003B00043EA014308FB0CF1994207D9EB180CF111
:1003C000FF3002D2994200F2EC808446591AA3B25F
:1003D000B1FBFEF00EFB101443EA044408FB00F8E6
:1003E000A04507D92C1900F1FF3302D2A04500F235
:1003F000DC801846A4EB080440EA0C40BEE78B42C0
:1004000008D9002E78D00027C6E9000138463946C1
:10041000BDE8F087B3FA83F77FB98B4202D38242FB
:1004200000F2BD80841A61EB030301209846002E80
:10043000A9D0C6E90048A6E7FFDEC7F12005BB400A
:1004400022FA05FC4CEA030C01FA07F420FA05F83D
:1004500021FA05F34FEA1C4E48EA0404B3FBFEF907
:10046000210C0EFB19331FFA8CF841EA034309FBF8
:1004700008FA9A4502FA07F200FA07F10BD91CEBC9
:10048000030309F1FF3080F088809A4540F28580AF
:10049000A9F102096344A3EB0A03A4B2B3FBFEF083
:1004A0000EFB103344EA034400FB08F8A04508D9CA
:1004B0001CEB040400F1FF336BD2A04569D902386C
:1004C000644440EA0940A4EB0804A0FB02894C45BF
:1004D000C6464B4654D351D0002E69D0B1EB0E0224
:1004E00064EB030404FA05F522FA07F3FC401D430C
:1004F000C6E90054002746E73746304643E718462A
:1005000037E707461FE7C2F1200320FA03F79540BB
:1005100001FA02F021FA03F34FEA154E3843010CB9
:10052000B3FBFEF71FFA85F80EFB173341EA0341D0
:1005300007FB08F38B4204FA02F407D9691807F1A4
:10054000FF3C28D28B4226D9023F2944CB1A81B2E4
:10055000B3FBFEF00EFB103341EA034100FB08F34E
:100560008B4207D9691800F1FF3C10D28B420ED99B
:1005700002382944C91A40EA074714E74145ABD27B
:10058000B8EB020E69EB0C0201381346A4E7604693
:10059000F0E7184695E76746D8E781467BE7384697
:1005A00045E7ACF1020C2B4410E702382C4421E75C
:1005B0003746E8E6704700BF436810B41C6813462E
:1005C000A4460A4610BC00216047436810B45C682A
:1005D0001346A4460A4610BC00216047012870B5A6
:1005E00005461E4C1ED14FF02003EFF3118683F316
:1005F00011880B2102462068FFF7DEFF00220B2145
:100600002068FFF7E2FF052002F066F92A460B2179
:100610002068FFF7DAFF86F311885520BDE87040A7
:1006200002F05AB94FF02003EFF3118583F31188DC
:1006300001220B212068FFF7BFFF00220B21206859
:10064000FFF7C3FF552002F047F901220B21206874
:10065000FFF7BBFF85F311880520DFE73805002091
:1006600073B5002501954FF02003EFF3118683F356
:100670001188164C01220B212068FFF79DFF2A46A6
:100680000B212068FFF7A1FF032002F025F90122CA
:100690000B212068FFF799FF0F2002F01DF92A4671
:1006A0000B212068FFF788FF206843680B229C68B5
:1006B000294601ABA04786F31188352002F00CF9DA
:1006C000019800F0010002B070BD00BF38050020A5
:1006D00038B50546002445FA04F000F00100013465
:1006E000FFF77CFF082CF6D16420BDE8384002F00B
:1006F000F3B870B5002425460126FFF7B1FF18B105
:1007000006FA05F31C43E4B20135082DF5D1204665
:1007100070BD000073B5002401944FF02003EFF387
:10072000118683F31188154D01220B212868FFF7EC
:1007300043FF22460B212868FFF747FF4FF4F07074
:1007400002F0CAF822460B212868FFF735FF462041
:1007500002F0C2F82868436821469D680B2201AB6D
:10076000A847019CB4FA84F4640986F311884FF415
:10077000CD7002F0B1F8204602B070BD38050020FF
:1007800038B5FFF7C7FF20B9134800F005FA00207D
:1007900038BDCC20FFF79CFF4420FFF799FF40F2C3
:1007A000EE2002F00FF8FFF7B5FF0028ECD0CC20C8
:1007B000FFF78EFFBE20FFF78BFFFFF79AFF04467F
:1007C000FFF797FF0546FFF7A5FF0028DCD004EBF5
:1007D000052040F30F10DBE7DC2C0000F8B51A48C9
:1007E0001A4C00F0D9F91A4801F05CFC01221121E1
:1007F0002060FFF7E1FE174800F0CEF9144801F041
:1008000051FC154B00220B211860FFF7D5FE10B1EB
:10081000124800F0C1F9124F124E41F2883001F037
:10082000D1FF384600F0B8F9FFF7AAFF85B2182DBE
:100830008CBF0022012211212068FFF7C6FE294645
:10084000304600F0A9F9E8E7F12C00003C05002053
:10085000FE2C0000052D000038050020182D00009A
:100860002E2D00003D2D000008B504460846114617
:100870001A46A04701F0E6FF01F090F8002070470B
:100880000B6801330B60014B1B681847581300209D
:100890002DE9F04F85B09B460E9CDFF890A0012C0F
:1008A000B8BF0124012B0CBF3023202315468046FE
:1008B00089460194029301260A2700220AF10104C5
:1008C0000AB9AA451FD2B5FBF4F049463030C047FB
:1008D00001360122013F012FB5FBF4F14FF00A036D
:1008E00004FB1155BAFBF3FAE8D1494605F1300093
:1008F000C047BBF1030F03D1019B9C1B002C0FDCF5
:1009000005B0BDE8F08F019BBB42E3DBBBF1020FFA
:10091000E0D84946029803920136C047039AD9E7C6
:1009200049462020C047013CE8E700BFFFC99A3B89
:10093000014B1860704700BF581300202DE9F04F9D
:1009400089B01C464FF00009531E05460E4604931D
:100950004FF0FF384F464FF0000B07E0BBF1000FA0
:100960000DD1252800F0FC803146A847049B13F8E0
:10097000010F04930028F1D109B0BDE8F08F64287D
:100980005ED019D839280AD831284DD22D2800F048
:10099000EE8030283CD0252807D13146DEE05828AB
:1009A00000F08280632800F0D68031462520A847D9
:1009B000049B31461878D1E070286CD006D869289D
:1009C0003ED06C2839D06828D0D0EEE7752854D0B6
:1009D0001AD87328E9D154F8042B9346DA461BF849
:1009E000010B002840F0B280032F40F0C480AAEB36
:1009F000020AA8EB0A0ABAF1000FACDD314620204A
:100A0000A8470AF1FF3AF6E778284DD07A28DBE7C5
:100A1000B8F1000F0BDA002F00F0AB80A0F1300826
:100A2000002F08BF0227A1E7B8F1000FF6DB0A226A
:100A300002FB0808A8F13008F2E709F1010995E77F
:100A4000B9F1010FC5BF073424F0070454F804AB13
:100A500054F808ABBAF1000F06DA31462D20A8474A
:100A6000CAF1000A08F1FF38CDF800803B46524633
:100A700031462846FFF70CFF6DE7B9F1010FC5BFFE
:100A8000073424F0070454F8042B54F8082BCDF84D
:100A900000803B46ECE731463020A84731467820BD
:100AA000A8474FF008080127B9F1010FC5BF073467
:100AB00024F0070454F8043B54F8083B059308223B
:100AC0004FF0000ACDF818A011464B1E9800039372
:100AD000059B23FA00F010F00F0009D1069B0BB91B
:100AE000012923D1302107E0CDF818B00399ECE7B4
:100AF00009288CBF57213021084440B23146069264
:100B0000A847039B069A0AF1010A002BECD1032F98
:100B10007FF421AFCAEB480ABAF1000F7FF71BAF91
:100B200031462020A8470AF1FF3AF5E7531E9045C9
:100B3000079304DB012F04D131463020A847079AE0
:100B4000D4E7022FFBD131462020F7E7314603924C
:100B5000A847039A42E754F8040B3146A847FAE63F
:100B6000D9465F464FF0FF384FF0010BFEE60327F2
:100B7000FCE60127FAE68346F8E6000007B5002305
:100B8000019302460B46034801A9FFF7D7FE03B0C5
:100B90005DF804FB810800000FB407B504A951F803
:100BA000040B0191FFF7EAFF03B05DF804EB04B01A
:100BB0007047704710B54FF02003EFF3118483F3B3
:100BC000118800F04FF8084A0123C2F840354FF071
:100BD0008042C2F87835054B4FF0FF329A62DA62F4
:100BE00084F31188002010BD00E0014000ED00E01A
:100BF0000C4B1B78062B10D10B4B1B681A070CD122
:100C00000A4B186800F0F003302B08D000F0E00029
:100C1000A0F140035842584170470020704701201E
:100C2000704700BFE00F00F0E40F00F0E80F00F0A5
:100C3000094B1B78062B0CD1084B1B681A0708D1EF
:100C4000074B186800F0F000A0F1300358425841FB
:100C500070470020704700BFE00F00F0E40F00F085
:100C6000E80F00F008B5FFF7C3FF28B1784B794AC9
:100C70001B68C3F304231360FFF7DAFF10B1764B50
:100C8000764A1A60FFF7B4FF28B1754B754A1B68A6
:100C9000C3F342331360FFF7CBFF20B1724AD3682E
:100CA00023F08073D360FFF7A3FF40B14FF0804380
:100CB0000022C3F80C21C3F81021C3F83825FFF730
:100CC000B7FF10B1694B03221A60FFF7B1FF40B1C3
:100CD000674B05221A6001229A6700229A603F2220
:100CE0005A60644B1B78062B50D1634B1B68190765
:100CF0004CD1624B1B6803F0F003502B46D14FF0F0
:100D000080525F4BD2F80414C3F82015D2F80814AF
:100D1000C3F82415D2F80C14C3F82815D2F810140F
:100D2000C3F82C15D2F81414C3F83015D2F81814DF
:100D3000C3F83415D2F81C14C3F84015D2F82014A7
:100D4000C3F84415D2F82414C3F84815D2F828146F
:100D5000C3F84C15D2F82C14C3F85015D2F830143F
:100D6000C3F85415D2F83414C3F86015D2F8381407
:100D7000C3F86415D2F83C14C3F86815D2F84014CF
:100D8000C3F86C15D2F84424C3F87025FFF730FF80
:100D900028B13C4B3C4A1B6803F04F031360FFF73C
:100DA00027FF48B14FF08043D3F80024D20744BF57
:100DB0006FF00102C3F80024344B1B68062B08D1E6
:100DC000334B1B68062B01BF324A136843F4806320
:100DD00013604FF01023D3F80022002A03DBD3F86E
:100DE0000432002B2FDA2C4B0122C3F80425D3F850
:100DF0000024002AFBD04FF010221521C2F8001267
:100E0000D3F80024002AFBD04FF010231522C3F89A
:100E10000422214B1A46D3F800140029FBD00021EC
:100E2000C3F80415D2F80034002BFBD0BFF34F8F6A
:100E30001A491B4BCA6802F4E0621343CB60BFF34C
:100E40004F8F00BFFDE7174B174A1A6008BD00BF60
:100E5000240300104035014074C007400DF0ADBAC6
:100E6000440200103C050040F0ED00E0A005004009
:100E700010560040E00F00F0E40F00F0E80F00F023
:100E800000C0004058020010E40E00403001001085
:100E9000340100103C17004000E0014000ED00E08C
:100EA0000400FA057C1300200090D0030369C16898
:100EB0008B429DBF8268D21802F1FF3203F1FF33EB
:100EC00094BF501A581A70472DE9F041D0E90274C6
:100ED00005463E1B4068964220448846144404D987
:100EE00000F018FEEC60BDE8F0813246E41B00F033
:100EF00011FE224608EB06016868F1E72DE9F84388
:100F0000C5680646894617464FF000083469B3683D
:100F10007068A54228BFE418013C621B5C1BBC4200
:100F200028BF3C46944228BF1446494628442246DE
:100F300000F0F0FDB3682544AB4208BF00253F1B1D
:100F4000A044A144F560E1D14046BDE8F88300002B
:100F500010B5114C114AA2610323C4E90433104BAC
:100F6000E36122664FF480630E4A236262660023C7
:100F700010220D49A362E01D6362E3622367E3660A
:100F80006367A26600F0B0FD0849204600F0ACFDA2
:100F90002023A37110BD00BF40050020732D000069
:100FA00010000020000000207C2D0000802D00009B
:100FB000F8B5184C182300FB033503FB004025440B
:100FC000C46A012C0F46164611D024B1022C1BD046
:100FD00000242046F8BD2846FFF768FFB042F8D34A
:100FE000324639462846FFF76FFF3446F1E7284678
:100FF000FFF75CFF8642344628BF04462246394646
:101000002846FFF761FFE4E72846BDE8F840FFF710
:1010100075BF00BF40050020FFF79ABF08B5FFF776
:10102000FBFF08BD10B5044C2046FFF781FC2046AD
:1010300000F0C0FD002010BD3D1000002DE9F3417F
:10104000164F174D8DF80700064603244FF0FF3169
:10105000384601F019F901220DF107010020FFF7D0
:10106000A7FF8046384601F071F9B8F1000F05D0AE
:1010700001232B70304602B0BDE8F0812B78002BA5
:10108000F8D0013C07D001F00FFC0028DED102208F
:1010900001F098FBDAE72C70ECE700BFEC130020BE
:1010A0001004002010B54FF02003EFF3118283F3FA
:1010B0001188114C237823B982F311886FF0440012
:1010C00010BD013BDBB2237023B182F311886FF0B6
:1010D0000F00F5E7094B1878012128B1217082F340
:1010E00011886FF00A00EBE7197082F31188044A47
:1010F00011601870E4E700BF130400201204002000
:101100000400004008B500221046012100F082FBD7
:10111000002000F05BFB002008BD0000F8B54FF098
:101120002002EFF3118382F31188264A1078441CC1
:10113000147070B183F311884FF08043D3F80C34EE
:1011400003F00113B3F1011F0CBF00206FF0430047
:1011500007E01D4D2F782FB1107083F311886FF0C9
:101160000A00F8BD01262E7083F311884FF08044E9
:1011700019B3384600F03AFBC4F80071D4F80433D0
:10118000C4F804632660D4F8002192B10022C4F8A8
:1011900000210E4A13F0010F4FF0010308BFC4F8FD
:1011A00008330020C2F8803100F010FB00232B70C0
:1011B000C2E720BF40BF20BFE5E7C4F800112660AA
:1011C000F4E700BF130400201204002000E100E057
:1011D00038B54FF02002EFF3118382F311881D4DD3
:1011E0002A788AB183F311884FF08042D2F81C34F8
:1011F000D2F8182403F0030343F48033934314BF5D
:101200006FF04300002038BD01242C7083F3118857
:101210004FF08043104DC3F80421C3F818152C601B
:1012200011F003014FF01805C3F80853C3F80C215F
:10123000C3F81021D8D11022C3F83825C3F80453BD
:10124000C3F80443FFF76AFF0028CDD1034BC3F86E
:101250000041C9E7110400200800004000E100E05F
:10126000F8B54FF080430546D3F808C1D3F80423FE
:10127000D3F80C44D3F80071D3F80401D3F80C115F
:10128000D3F8106102F00102BCF1000F03D04FF05F
:10129000000CC3F808C127B14FF080430027C3F802
:1012A000007152B1E30308D54FF08043154C012281
:1012B0000227C3F8082327601A6120B14FF080434A
:1012C0000022C3F8042159B10E4B4FF08044002195
:1012D00019602846C4F80C11FFF7E4FE012363618E
:1012E00076B14FF0804300210124C3F81011284645
:1012F000C3F80443FFF712FF10B9034BC3F80041D2
:10130000F8BD00BF340C004000E100E0094BC3F819
:101310004005D3F80435C01A20F07F4323F00103C1
:101320000BB1030204D5044B4FF40032C3F8002183
:10133000704700BF0010014000E100E010B5134B02
:10134000134CD3F804052268801A20F07F40B0F5D2
:10135000A37F13D90F49096840F24713B0FBF3F09C
:10136000884228BF084603FB00230B4A23F07F4333
:10137000236013680344136001F006FC2068BDE895
:10138000104000F24710FFF7C1BF00BF001001403E
:101390001C0400201804002014040020024B00222A
:1013A000C3F84021FFF7CABF00100140704700207A
:1013B0007047000008B5074B0022C3F84021064BD8
:1013C0004FF40032C3F88021FFF7B8FF034B01222E
:1013D0001A6008BD0010014000E100E01804002080
:1013E00070B5194800F05EFE50B34368174D1B6896
:1013F00001219847164B00241C60164B01261E60E5
:1014000040F24713C5F80845C5F840354FF480331E
:10141000C5F84433C5F804330F4BC5F840414FF4C9
:101420000032C3F8802131462246112000F0F2F943
:10143000112000F0CBF9094B20461E602E6070BDD4
:101440004FF0FF30FBE700BFA02D0000001001406F
:101450001C0400201804002000E100E008100140F6
:1014600008B501F0DDFB40F247135843034BD3F8B6
:1014700004351B1A23F07F43184408BD00100140B7
:1014800004488168406A884203D003494FF0805283
:101490000A607047E805002004ED00E004480023DE
:1014A0002021C2180133272B82F80013F9D170478D
:1014B00000E100E0084A094993680968996608490B
:1014C00058664B6843F080534B60002383F31188C8
:1014D0009368986E704700BFE80500201032000046
:1014E00000ED00E0202080F311880D498A684FF05C
:1014F00028001044EFF3098C80E8F01F094F4FF0EB
:1015000000664A6A8A603E60506E0023536680F32C
:10151000118802F1280090E8F01F8CF309887047C9
:10152000E805002004ED00E01EF0040F0CBFEFF30F
:101530000880EFF30980816931F8021C11F0FF0186
:101540000229FFD000B500F0F9F900BD38B5194CFB
:1015500005461948FFF720FBA26AD10602D51748B5
:10156000FFF71AFBA36A1A0702D51548FFF714FB09
:10157000104CA36A9B070ED51248FFF70DFB616B59
:10158000A36A180607D51048FFF706FB1DB1A36A2A
:1015900023F08003A362074CA26AD20702D50B484E
:1015A000FFF7FAFAA36A9B0602D50948FFF7F4FA97
:1015B000002038BD00ED00E00F2F0000262F0000B6
:1015C000382F00004C2F0000652F00007C2F0000FA
:1015D0009C2F000038B51B4C05461B48FFF7DCFA72
:1015E000A36AD80404D51948FFF7D6FA002038BDFD
:1015F000A36A190501D51648F6E7A36A9A0514D51A
:101600001448FFF7C9FAA16BA36A1B0407D5124857
:10161000FFF7C2FA1DB1A36A23F40043A362094B8A
:101620009B6A5805E2D50D48DEE7A36A5905FAD44E
:10163000A36ADA0501D50A48D6E7A36A9B04D5D583
:101640000848D1E700ED00E0C02D0000262F000083
:10165000382F0000D72D0000F12D0000072E0000CC
:10166000232E00009C2F000010B5194C1948FFF7DD
:1016700093FAA26A930102D51748FFF78DFAA36A7D
:10168000DC0102D51548FFF787FA114CA26A100356
:1016900002D51348FFF780FAA36A590302D511480F
:1016A000FFF77AFA0A4CA26A920302D50E48FFF7B6
:1016B00073FAA36ADB0302D50C48FFF76DFA044AFC
:1016C000936A6FEA03436FEA13439362002010BDED
:1016D00000ED00E0CC2F0000E52F0000F92F000006
:1016E0001430000033300000593000007430000026
:1016F00038B5274C6368C3F30802D11E0546092993
:101700003AD8DFE801F0053335303939393939371E
:101710002048FFF741FAE36A9A0703D51E48FFF70E
:101720003BFA02E0E36A5B0005D400202946BDE8ED
:10173000384000F0D1B81948FFF72EFA184B1B7843
:101740002BB10120FFF702FF0628EFD138BD154B62
:101750001B781BB10120FFF73DFFF5E7124B1B88FB
:101760009BB2002BE1D0FFF77FFFEDE70020E9E718
:101770000020F0E70D48D2E713F4F87F0C4B0D4939
:101780000D48A2F1100218BF1946FFF705FACCE781
:1017900000ED00E06A2E0000822E0000A42E000062
:1017A00028ED00E029ED00E02AED00E0C42E000065
:1017B000512E00003C2E0000FB2E0000024A53690F
:1017C00043F010035361704700ED00E043B2002B7B
:1017D00008DB012200F01F0002FA00F05B09024A58
:1017E00042F82300704700BF00E100E043B2002B45
:1017F0000DDB01225B0900F01F0002FA00F020332C
:10180000034A42F82300BFF34F8FBFF36F8F704737
:1018100000E100E043B2002BA8BF03F1604301F1F7
:1018200001014FEA4111AEBF03F5614300F00F0023
:10183000034BC9B2ACBF83F800131954704700BF03
:1018400014ED00E000F034B8F8B50C4616461F461B
:1018500004220A9B0999054601F0F0F8A6F120013F
:1018600021440C4A21F00701002322F00102C5E9BE
:101870001333C5E916468A61069A4A60079A8A6058
:10188000089ACA604FF080720F60CA61A9646B66E3
:10189000F8BD00BF69080000014910220A607047C6
:1018A00010ED00E0404080F3118830BF704700BF6A
:1018B000404080F31188DFF81CC0DCF800C01CF445
:1018C000006C0CBFEFF30880EFF3098000B5FFF761
:1018D0000FFF00BD04ED00E038B504460D460528B5
:1018E0001AD8DFE800F00319191315170D48FFF790
:1018F00053F900F0A7FFAA6901460B48FFF74CF91E
:1019000029462046BDE8384000F01CB80748EEE7FD
:101910000748ECE70748EAE701460748FFF73CF9C4
:10192000E7E700BFA03000003E310000C0300000FB
:10193000E6300000003100001B3100000146006865
:10194000FFF7CABF052810B50CD000F0ADFF60B19D
:1019500000F0AAFF0C490D4B002808BF19460C489F
:10196000FFF71AF9FFF79EFFFCE700F0ADFF002834
:10197000EED1084C0848A168FFF70EF9A068BDE851
:10198000104000F00BB800BF7A3100007E3100003B
:101990008F310000E8050020AF31000038B5054662
:1019A0004FF02003EFF3118483F3118800F0D8FF88
:1019B0000A4B9B68AB420BD1094B5A68C2F3080231
:1019C00012B92046FFF776FD5A6842F080525A60FD
:1019D0002046BDE8384000F083BD00BFE805002088
:1019E00000ED00E000B572B60B4A106A00281EBF79
:1019F0000021116200F07CFB62B6EFF30580A0F1DC
:101A000010004FEAC0000549014409C998475DF834
:101A100004EBFFF735BD0000E8050020DC00000006
:101A2000202080F3118806484FF40061401880F3AD
:101A30000988022080F31488BFF36F8F00F006F846
:101A4000580B002030BFFFF7FDBF00BF08B5074BA4
:101A5000074A23F07F039360BFF34F8FBFF36F8F6D
:101A600000F060FB00F068FB00F08AFB0000000063
:101A700000ED00E008B5FFF7E5FFBDE80840FFF71F
:101A8000FFBC0000034B05225A60BFF34F8FBFF32A
:101A90006F8F704790ED00E0114A10B51468082C64
:101AA0001BD81049506800234B609C4200F10C0089
:101AB00003D1FFF7E7FF002010BD8B6050F80C2C1E
:101AC00022F01F021A4342F01002CA6050F8042CA0
:101AD00042F001020A610133E7E74FF0FF30EBE724
:101AE0005C13002090ED00E00139034611F8012F4E
:101AF0000AB91A70704703F8012BF7E7013801396A
:101B000010F8013F11F8012F934201D1002BF7D1BA
:101B1000981A7047F0B581EA0004A50703460BD078
:101B2000013B0A4491421AD1F0BD002AFCD011F8C1
:101B3000014B03F8014B013A9C07F6D19508AC0024
:101B40001E1F0F19B94205D16FF0030606FB0522CF
:101B50002344E5E751F804CB46F804CFF2E711F847
:101B6000014B03F8014FDDE770B5C9B203469C078E
:101B700010D141EA012444EA0445940803EB8406A9
:101B8000B3420DD16FF0030505FB04241C44A342AE
:101B900009D170BD002AFCD003F8011B013AE6E729
:101BA00043F8045BECE703F8011BF0E74FF0FF306C
:101BB00070470000014B1860704700BF8013002081
:101BC00010B504688068A468C0692468012904D13C
:101BD0005840C4F80405002010BD003320FA02F07C
:101BE0004FF0010118BF012300F001009140834232
:101BF00014BFC4F80815C4F80C15ECE710B5046858
:101C00008068A468C0692468D4F81045012980EA76
:101C100004001CBFD04000F001001860002010BD7F
:101C20008368186872B108605A68196002B959600F
:101C30000020704710605868884208BF5A600DE065
:101C4000024600680028F3D08842F9D10868002ACB
:101C5000F0D15A6818608A4200D1586000230B60A6
:101C6000E6E7000008B5094B1A786AB90121197036
:101C700006200521FFF7CEFD0620FFF7A7FD044B48
:101C80004FF00042C3F80423002008BD20040020C8
:101C9000006000400B4A936812689268126810B5A1
:101CA000D2F81045D3E905211143D3E902020240DD
:101CB000D8691B69584022EA0102604022EA00000C
:101CC00010BD00BFE0130020F7B5234D2B68012B9A
:101CD00031D1FFF7DFFF06460023204C01279C4649
:101CE000D4F8042307FA03F1114214D09A0002F148
:101CF000804202F5C242116801290CD103F5A2709D
:101D000054F82000C2F800C012680092C0F304200A
:101D10008140009A0E430133082BE1D16EB92B6844
:101D2000012B06D1FFF7B6FF18B928602B68019385
:101D3000019B03B0F0BD0026CEE7094FBB681C68CD
:101D4000002CECD0A3681E4204D0636832462146C2
:101D5000384698472468F3E77C6100400060004003
:101D6000E013002073B503685A4D9B6884681A79A4
:101D7000D5F8040301F01F0343EA4213C0B2002266
:101D800002F5A27655F82660C6F30426B34279D14F
:101D900020FA02F6F60775D5900000F1804000F5B4
:101DA000C040D0F8106526F00106C0F8106501208B
:101DB00000FA02F2C5F808239A0002F1A042D2F814
:101DC000000720F44030C2F80007D2F80007C2F83C
:101DD0000007A068C84010F0010051D0E068C8407A
:101DE00010F001004CD06069C84010F0010056D0DE
:101DF000A269CA40D2074AD42269E069CA4020FADF
:101E000001F102F0010201F001018A4214BF012137
:101E10000221304D002404F5A27255F8220010F082
:101E2000030036D1A20002F1804202F5C0421B023B
:101E3000D2F8106503F4F85343EA014126F447361B
:101E400004F1400326F440769B00C2F810659BB273
:101E5000D2F8106503F1804303F5C0433143C2F863
:101E6000101518601B680193019BD2F8103543F0E0
:101E70000103C2F81035012303FA04F4C5F8044342
:101E800002B070BD0132082A7FF47AAF94E70321D3
:101E9000BFE70134082CBED16FF01200F0E72369D0
:101EA000E469CB4024FA01F1D2F8004724F440342D
:101EB000C2F80047D2F8004703F0010301F0010126
:101EC0008B4214BF4FF400334FF440332343C2F826
:101ED0000037D5E7006000402DE9F74F8046856860
:101EE00003F47040B0F5804F1E4641D009DCB0F5D8
:101EF000805F3FD0B0F5405F3ED090B16FF01500ED
:101F000033E0B0F5E04F39D004DCB0F5A04FF5D1A7
:101F1000032006E0B0F5404F32D0B0F5504FEDD180
:101F2000072006F44077B7F5807F2BD0A7F5007423
:101F30006342634106F0010C4FEA4C07012947EA6E
:101F40000C0718BFD4B247EA002040EA830712BF4B
:101F5000A1464FF01F0900244FF0A04A4FF0010B9B
:101F600006F00203A1450FD2002003B0BDE8F08FB8
:101F70000220D6E70120D4E70420D2E70520D0E7ED
:101F80000620CEE70323D5E7D8F800209268117920
:101F900004F01F0242EA411202F5E0724AF8227090
:101FA0000BFA04F2A968002B25D01143A9606969D6
:101FB0000193B0064CBF114391436961A969700652
:101FC0004CBF11439143A961296970074CBF11436C
:101FD00091432961E96930064CBF0A4321EA0202B4
:101FE000EA6121464046FFF7BDFE0028BDD101341D
:101FF000E4B2019BB6E721EA0201D7E701292DE906
:10200000F04118BFD4B28768064612BF25461F2587
:1020100000244FF00108AC4202D90020BDE8F08155
:10202000FB6808FA04F223EA0203FB60214630460B
:10203000FFF798FE0028F1D10134E4B2EBE7012963
:102040002DE9F04118BFD4B28768064612BF254675
:102050001F2500244FF00108AC4202D90020BDE842
:10206000F081FB6808FA04F21343FB602146304616
:10207000FFF778FE0028F2D10134E4B2ECE700006B
:1020800038B5074B53F82040013053F82050A54293
:1020900000D838BD236820465B6898470C34F6E7C3
:1020A000FC310000104B70B5104C05461E469C429A
:1020B00004D10E4CB44209D1002412E062681AB176
:1020C00022681268AA420CD00C34F0E763680BB99E
:1020D0000C34EFE7236828461968FFF70FFD002846
:1020E000F6D1204670BD00BFEC1300208C130020F9
:1020F000FFF760B908B50A4D4FF02002EFF31183E6
:1021000082F3118800F0DAFC012102280446D8BFCE
:102110000846FFF74BF92C62FFF7C4FBECE700BF62
:10212000E80500200248034A0021121AFFF71CBDEF
:1021300000000020180600200248034A0349121A32
:10214000FFF7E8BC581300200014002054320000B0
:1021500008B50220FFF794FF0748FEF71DFD032096
:10216000FFF78EFF00F01CFCFEF738FB034A137BE1
:1021700023F00103137308BD24320000B0040020D3
:1021800080B586B006AFFFF789F9314B83F3088835
:10219000304B314E314D0024E02283F82220DC7791
:1021A0001C765C769C765A6A42F4E0225A62FFF70B
:1021B00005FBFFF771FB2046FFF762FF0120FFF7E9
:1021C0005FFF00F0C1FA264B756205930123CDE94C
:1021D0000343CDE901440094224B23494FF480622C
:1021E000284600F0A5FB6B7B23F0040213F01B0FC5
:1021F0006A73344605D12B6A013302D1284600F0B8
:10220000C1F91A4B1A4E059301220F23CDE903326F
:102210000023CDE9013300934FF4A072154B16490A
:10222000304600F085FB737BE66023F00403737394
:10223000124BA560C4E906330A4A114B114C83F3D3
:10224000098863B6002181F311881046204700BF3A
:102250005813002000ED00E0E8050020B004002045
:10226000143200005121000018060020193200002D
:1022700044040020F5200000180A00200006002079
:10228000180A00206908000070B50D462E498A68BA
:10229000D37B013B0446D373C36808464BB1A268A5
:1022A00089688A4211D095B900F032F96FF00F00B9
:1022B0000AE08A6892F90E2022610133E3608368A4
:1022C000A36000F025F9002070BD2269F4E791F9C0
:1022D0000E1092F90E309942A8BF194621EAE17119
:1022E0004FF02003EFF3118683F31188A06890F973
:1022F0000E30994201DA00F0FBF92A4621463046B9
:1023000000F0E8F90028DCD0236821699C4207D05E
:1023100033B193F90E309942A8BF194621EAE17111
:102320004FF02003EFF3118583F31188A06890F933
:102330000E30994201D000F0DBF985F3118800F0EE
:10234000E7F86FF00A00BFE7E80500201B4B9A682A
:10235000D37B013B70B50446D373C368013BC360B4
:102360003BBB4FF02003EFF3118683F31188016923
:10237000806890F90E30994201D000F0B9F92046FA
:1023800000F09FF80546A06088B1437BDB0604D1CE
:10239000036A013301D100F0F5F886F311880023B8
:1023A000AB66E3680133E36095F90E30236186F391
:1023B0001188BDE8704000F0ABB800BFE805002010
:1023C00010B500F07BFB0446FEF7F1FF074B084A0F
:1023D0001B6818441061621C01D0A34205DA002179
:1023E0001846BDE81040FEF7E1BF10BD20050020F3
:1023F000E80500204FF02003EFF3118083F31188EC
:102400007047000038B5104C234653F8285F9D42B2
:1024100000D005B9E568A36878B973B15A7BD206D4
:102420000BD11A6A013208D1DA897F2A05D9074A05
:102430001268934201D0636238BDAB4201D0FFF70E
:10244000BFFF6562F8E700BFE8050020203200000A
:1024500010B50246FFF7CEFF537B590604460ED552
:10246000D2E900310B605960537B23F04003537372
:10247000044B9868831A58425841FFF7C3FF84F30E
:10248000118810BDE805002008B50246FFF7B2FF2D
:1024900013689A4208BF002380F31188184608BDCC
:1024A00008B50246FFF7A6FFD2E900310B6059607C
:1024B000537B23F00203537380F31188002393604E
:1024C00008BD10B50021FFF7DFFF044628B1FFF774
:1024D000E7FF04F1180000F0E1FA204610BD00000B
:1024E000EFF305830D2B0BD81BB1074B5B681B0566
:1024F00006D5064B9A685B6A9A4201D0FEF7DABFAE
:1025000080F31188704700BF00ED00E0E80500206F
:1025100010B5FFF76FFF0A4B9A68D37B013304466F
:10252000D3730120FFF76EFF84F311884FF020036F
:10253000EFF3118083F31188BDE81040FFF7D0BF9F
:10254000E80500200368984210B506D143684B6047
:10255000436808601960416010BD002BF6D091F906
:102560000E2093F90E40944205DD5A68C1E900320D
:1025700011605960F0E74468A342E7D01B68002B64
:10258000EFD1E3E738B50446FFF734FF21460546AF
:102590000648FFF7D7FF637B43F0400363730020D7
:1025A000FFF730FF85F3118838BD00BF100600200B
:1025B000427BD20604D1036A013301D1FFF7E2BFA7
:1025C000704738B550F8103C0446A0F1180513B117
:1025D0002846FFF765FF14F80B3C23F0040304F8CA
:1025E0000B3C2846BDE83840FFF7E2BF70B5044613
:1025F000FFF700FFD4E900320A4D136021465A600C
:1026000006462846FFF79EFF637B55F8200C43F0F3
:1026100040036373031B58425841FFF7F3FE86F3F0
:10262000118870BD10060020114B1B6810B5EBB16E
:1026300010498B68DA897F2A18D80F4A93F90E401F
:102640001268944212DB0D4A126893420ED01A6A45
:1026500001320BD10A69824206DC1846FFF7C6FF39
:10266000BDE81040FFF7ACBE121A0A6110BD00BFF2
:1026700020050020E80500201C0500202032000075
:1026800070B504460D461646FFF7E2FE637B43F045
:102690000203637325B1A56021462846FFF752FF68
:1026A000731C12D009484FF4004500214FF4A022BA
:1026B000C5FB06010023FDF7ADFD0549421C04F1F1
:1026C0001800BDE8704000F027BA70BDFFFF04009D
:1026D000C325000010B5054B04469868FFF7D0FFEE
:1026E0002046BDE81040FEF7E5BE00BFE80500202B
:1026F00010B50246FFF77EFE537BDB06044649B267
:102700001CD1136A013319D1D2E90030036058603B
:1027100091730C481146FFF715FF0120FFF772FE79
:10272000012384F3118863B14FF02003EFF311808C
:1027300083F31188BDE81040FFF7D2BE91730023E8
:10274000EFE710BD10060020054B03F12802C3E996
:102750000A22044A00231360034A1360FFF730BEC5
:10276000E8050020200500201C05002038B5134C8A
:10277000134BA2681B689A4210D0FFF73BFEA1687A
:10278000D1E900320546136004F128005A60FFF7D2
:10279000D9FE0120FFF736FE85F31188A268636A2F
:1027A0009A4209D04FF02003EFF3118083F3118890
:1027B000BDE83840FEF77EBE38BD00BFE80500200A
:1027C00020320000F8B5044618B9FFF7CFFF2046C5
:1027D000F8BD19484FF4004500214FF4A022002312
:1027E000C5FB0401FDF716FD451C00F02FFA2C185F
:1027F0004FF02003EFF3118783F311880F4EB06879
:10280000FFF726FEB0680E492A46183000F084F91A
:102810003846FEF74FFE00F019FA201A002809DDAD
:102820004FF47A716422002380FB0101FDF742FD21
:102830000446CCE70024CAE7FFFF0400E8050020B7
:10284000C3250000014B9868704700BFE8050020D1
:10285000F8B505460F464FF02003EFF3118483F3DC
:1028600011880A484FF40046002100234FF4A022AB
:10287000C6FB0701FDF7CEFC0549421C05F1180017
:1028800000F04AF984F31188F8BD00BFFFFF04008F
:10289000C3250000427BD20604D1036A013301D173
:1028A000FFF770BE70470000EFF305800D2807D8D2
:1028B00038B1044B586880F40060C0F3C020704702
:1028C0000120704700ED00E0024B9B68187B00F090
:1028D00001007047E8050020014638B5074A00238B
:1028E000C003490CFDF7E6FC0446FEF7B9FD0546BA
:1028F000FEF7B6FD401BA042FAD338BD40420F00A0
:1029000010B54FF02003EFF3118483F31188437B5C
:10291000590702D484F3118810BD23F004034373D4
:10292000FFF7B8FF2046BDE81040FFF7D9BD000013
:1029300030B587B004460E9D04950D9D03950C9D02
:1029400002950B9D01950A9D0095FEF77DFF034BB7
:102950009B6803B11B6E236607B030BDE8050020FD
:10296000036D10B5044603B19847637BDA060AD1BC
:10297000226A013207D12046FFF76AFD637B43F0EC
:102980000803637310BD9B0702D52046FFF788FD3F
:10299000236A0133F2D004F1180000F07FF8EDE76C
:1029A000F0B5234F234D87B03E46BD4205F13004BC
:1029B00014D3214B9A68D37B013BD3734FF0200390
:1029C000EFF3118583F311881A4CB44223D385F3B6
:1029D000118807B0BDE8F040FFF79ABD54F8043CF9
:1029E000059354F8103C049354F8143C039354F8A2
:1029F000183C029354F81C3C019354F8203C00937B
:102A000054E90A2354E90C01FFF792FF54F8303CD3
:102A1000DD642546C9E7616A4B1C03D0206819B9FB
:102A2000FFF76EFF3034D0E7FFF712FFFAE700BF81
:102A3000EC130020EC130020E805002003730023B2
:102A4000C3734FF0FF33427381730362704700001A
:102A5000034B1B680BB9FEF7AABC0020704700BFF0
:102A6000240500204FF02003EFF3118083F3118839
:102A700070470000036840B1074A5268904204D092
:102A80001BB19A6881680A449A60426813605A6070
:102A90004FF0FF33836070478413002010B5024667
:102AA000FFF7E0FF04469068431C03D01046FFF791
:102AB000E1FF002084F3118810BD0000134B1B7848
:102AC00070B5002B14BF4FF0FF326FF00042FFF7DC
:102AD000C9FF0F4B1C689C4206460AD04CB1A56842
:102AE000FFF7B6FF281A00280DDBA468FFF7B0FF38
:102AF000221A86F31188074B1B6913B19A42A8BFAB
:102B00001A46104670BD0022F3E700BF28050020DA
:102B100084130020E805002070B5C1601546044606
:102B2000FFF7A0FF0646FFF793FF164A1368012D33
:102B3000ACBF401901309342A06001D0556833B951
:102B400053686360536822601C6054600AE09868B0
:102B5000A16888420FDD5A68411A9960C4E90032C1
:102B600014605C6086F31188FFF7A8FF0021BDE8C0
:102B70007040FEF71BBC091A9D42A160E0D01B68A3
:102B8000DDE700BF841300202DE9F04B214D224EDC
:102B9000224F04464FF00008FFF746FD2C60FFF778
:102BA00061FF3468B44281461CD094B1A1682B689F
:102BB000994215DC5B1A2B60D7E9002312EB010B5D
:102BC00043EBE17CC4F808802046C7E900BCFFF76E
:102BD00051FF89F311883CB1E36820469847DEE74E
:102BE000C91AA1600024F4E70C4EFFF73BFFD6E9B9
:102BF000002329682C60571843EBE178C6E9007878
:102C000080F31188FFF75AFF2146BDE8F04BFEF72D
:102C1000CDBB00BF24050020841300203005002018
:102C20002DE91848FFF71EFF0446FEF7C0FB064BD0
:102C3000D3E9002312EB000B43F1000C5846614628
:102C400084F31188BDE8188830050020014B18680E
:0A2C5000704700BF300500207047F8
:022C5A00FFFF7A
:082C5C0088D6FF7F0100000093
:102C6400C32E0000B50B000000000000C32E0000BE
:102C74001D10000000000000C32E000025100000FD
:102C840000000000A02D000005110000000000005D
:102C9400AB2D00000511000000000000B62D00005F
:102CA400E113000000000000C32E0000991A000088
:102CB40000000000FE2C0000651C0000F431000040
:102CC4004B32000003000000D43100000300000078
:082CD400602D00000300000068
:102CDC00446576696365206E6F7420646574656302
:102CEC007465640A005374617274696E672E2E2EBB
:102CFC000A004750494F5F3000507265706172692D
:102D0C006E6720445331384232300A0050696E20CD
:102D1C00636F6E666967757265206661696C656460
:102D2C000A000A53616D706C696E67202E2E2E207E
:102D3C000063757272656E742074656D7065726176
:102D4C00747572653A2025692064656772656573D0
:102D5C0020430A00736F6300464C4153485F3000B8
:102D6C005352414D5F30005465726D696E616C0059
:102D7C00525454005345474745520000D1110000AE
:102D8C0000000000000000001D110000A510000054
:102D9C0000000000636C6B5F6B3332737263006313
:102DAC006C6B5F6D3136737263007379735F636C38
:102DBC006F636B002A2A2A2A2A2042555320464147
:102DCC00554C54202A2A2A2A2A0A0020205072659F
:102DDC006369736520646174612062757320657228
:102DEC00726F720A00202042464152204164647284
:102DFC006573733A20307825780A002020496D706D
:102E0C0072656369736520646174612062757320F7
:102E1C006572726F720A002020496E73747275634A
:102E2C0074696F6E20627573206572726F720A001E
:102E3C005265736572766564204578636570746954
:102E4C006F6E20280053707572696F757320696EF0
:102E5C0074657272757074202849525120002A2AA8
:102E6C002A2A2A2048415244204641554C54202AB3
:102E7C002A2A2A2A0A002020427573206661756C62
:102E8C0074206F6E20766563746F72207461626C4F
:102E9C006520726561640A0020204661756C74209F
:102EAC00657363616C6174696F6E2028736565204E
:102EBC0062656C6F77290A002A2A2A2A2A2044651F
:102ECC00627567206D6F6E69746F722065786365CB
:102EDC007074696F6E20286E6F7420696D706C65EC
:102EEC006D656E74656429202A2A2A2A2A0A002A0A
:102EFC002A2A2A2A20257320256429202A2A2A2ACC
:102F0C002A0A002A2A2A2A2A204D505520464155A1
:102F1C004C54202A2A2A2A2A0A002020537461633E
:102F2C006B696E67206572726F720A002020556E95
:102F3C00737461636B696E67206572726F720A00DD
:102F4C00202044617461204163636573732056696A
:102F5C006F6C6174696F6E0A0020204D4D464152B2
:102F6C0020416464726573733A20307825780A00C6
:102F7C002020496E737472756374696F6E2041639F
:102F8C00636573732056696F6C6174696F6E0A00A8
:102F9C002020466C6F6174696E672D706F696E745A
:102FAC00206C617A7920737461746520707265731A
:102FBC006572766174696F6E206572726F720A0049
:102FCC002A2A2A2A2A205553414745204641554C46
:102FDC0054202A2A2A2A2A0A002020446976697356
:102FEC00696F6E206279207A65726F0A0020205515
:102FFC006E616C69676E6564206D656D6F727920AA
:10300C006163636573730A0020204E6F20636F70D9
:10301C00726F636573736F7220696E73747275630C
:10302C0074696F6E730A002020496C6C6567616C63
:10303C00206C6F6164206F66204558435F52455485
:10304C0055524E20696E746F2050430A002020495F
:10305C006C6C6567616C20757365206F6620746895
:10306C006520455053520A002020417474656D70E0
:10307C007420746F206578656375746520756E6453
:10308C006566696E656420696E73747275637469C4
:10309C006F6E0A002A2A2A2A2A20486172647761F4
:1030AC00726520657863657074696F6E202A2A2AB0
:1030BC002A2A0A002A2A2A2A204B65726E656C205D
:1030CC00416C6C6F636174696F6E204661696C75DD
:1030DC00726521202A2A2A2A0A002A2A2A2A2A2028
:1030EC004B65726E656C204F4F505321202A2A2A53
:1030FC002A2A0A002A2A2A2A2A204B65726E656C13
:10310C002050616E696321202A2A2A2A2A0A002A61
:10311C002A2A2A20556E6B6E6F776E204661746179
:10312C006C204572726F7220256421202A2A2A2A6B
:10313C000A0043757272656E7420746872656164FE
:10314C00204944203D2025700A4661756C74696ED7
:10315C006720696E737472756374696F6E20616435
:10316C006472657373203D20307825780A004953CA
:10317C005200657373656E7469616C207468726556
:10318C00616400466174616C206661756C742069C1
:10319C006E20257321205370696E6E696E672E2E1A
:1031AC002E0A00466174616C206661756C7420692E
:1031BC006E20746872656164202570212041626FF5
:1031CC007274696E672E0A006D707500D91E00004E
:1031DC00C11B0000FD1B0000211C00003F20000053
:1031EC00FD1F000000000000000000500000000067
:1031FC008C130020D4130020E0130020EC130020CB
:10320C00EC130020F5FFFFFF6D61696E0069646CC3
:10321C0065000000440400202A2A2A2A2A20426F32
:10322C006F74696E67205A6570687972204F5320ED
:10323C00312E31332E3939202A2A2A2A2A0A006BB8
:08324C0065726E656C00000064
:103254007D0800000200000064130020000000004C
:10326400642D000024000207000000206C2D0000E3
:103274001E000B110090D003AD1B0000841300202E
:04328400841300208F
:10328800642C00000000000000000000702C00000A
:1032980000000000000000007C2C0000000000007E
:1032A80000000000AC2C000000000000000000003E
:1032B800882C0000882D000000000000942C0000DD
:1032C800942D000000000000A02C00000000000069
:1032D80000000000B82C0000D831000024040020B1
:1032E800EC130020EC130020000000000000000098
:0432F8000F000000C3
:0400000300001A21BE
:00000001FF
